{
  "_format": "hh-sol-artifact-1",
  "contractName": "MyContract2",
  "sourceName": "contracts/MyContract2.sol",
  "abi": [
    {
      "inputs": [],
      "name": "getFlag",
      "outputs": [
        {
          "internalType": "bool",
          "name": "",
          "type": "bool"
        }
      ],
      "stateMutability": "view",
      "type": "function"
    },
    {
      "inputs": [],
      "name": "getValue",
      "outputs": [
        {
          "internalType": "uint256",
          "name": "",
          "type": "uint256"
        }
      ],
      "stateMutability": "view",
      "type": "function"
    },
    {
      "inputs": [
        {
          "internalType": "uint256",
          "name": "_value",
          "type": "uint256"
        },
        {
          "internalType": "bool",
          "name": "_flag",
          "type": "bool"
        }
      ],
      "name": "initialize",
      "outputs": [],
      "stateMutability": "nonpayable",
      "type": "function"
    },
    {
      "inputs": [],
      "name": "test",
      "outputs": [
        {
          "internalType": "string",
          "name": "",
          "type": "string"
        }
      ],
      "stateMutability": "pure",
      "type": "function"
    }
  ],
  "bytecode": "0x608060405234801561001057600080fd5b50610349806100206000396000f3fe608060405234801561001057600080fd5b506004361061004c5760003560e01c80632096525514610051578063279646661461006f578063f8a8fd6d146100a9578063f96339301461012c575b600080fd5b61005961014e565b6040518082815260200191505060405180910390f35b6100a76004803603604081101561008557600080fd5b8101908080359060200190929190803515159060200190929190505050610158565b005b6100b161027a565b6040518080602001828103825283818151815260200191508051906020019080838360005b838110156100f15780820151818401526020810190506100d6565b50505050905090810190601f16801561011e5780820380516001836020036101000a031916815260200191505b509250505060405180910390f35b6101346102b7565b604051808215151515815260200191505060405180910390f35b6000603354905090565b600060019054906101000a900460ff168061017757506101766102ce565b5b8061018e57506000809054906101000a900460ff16155b6101e3576040517f08c379a000000000000000000000000000000000000000000000000000000000815260040180806020018281038252602e8152602001806102e6602e913960400191505060405180910390fd5b60008060019054906101000a900460ff161590508015610233576001600060016101000a81548160ff02191690831515021790555060016000806101000a81548160ff0219169083151502179055505b8260338190555081603460006101000a81548160ff02191690831515021790555080156102755760008060016101000a81548160ff0219169083151502179055505b505050565b60606040518060400160405280600481526020017f7465737400000000000000000000000000000000000000000000000000000000815250905090565b6000603460009054906101000a900460ff16905090565b6000803090506000813b905060008114925050509056fe436f6e747261637420696e7374616e63652068617320616c7265616479206265656e20696e697469616c697a6564a2646970667358221220eb9752c6f065fa65009b8a88af7aafd4776332e4851dae7e54e51a83ac8a77f064736f6c63430006000033",
  "linkReferences": {},
  "deployedLinkReferences": {}
}