{
  "_format": "hh-sol-artifact-1",
  "contractName": "MyContract1",
  "sourceName": "contracts/MyContract1.sol",
  "abi": [
    {
      "inputs": [],
      "name": "getFlag",
      "outputs": [
        {
          "internalType": "bool",
          "name": "",
          "type": "bool"
        }
      ],
      "stateMutability": "view",
      "type": "function"
    },
    {
      "inputs": [],
      "name": "getValue",
      "outputs": [
        {
          "internalType": "uint256",
          "name": "",
          "type": "uint256"
        }
      ],
      "stateMutability": "view",
      "type": "function"
    },
    {
      "inputs": [
        {
          "internalType": "uint256",
          "name": "_value",
          "type": "uint256"
        },
        {
          "internalType": "bool",
          "name": "_flag",
          "type": "bool"
        }
      ],
      "name": "initialize",
      "outputs": [],
      "stateMutability": "nonpayable",
      "type": "function"
    }
  ],
  "bytecode": "0x608060405234801561001057600080fd5b5061027e806100206000396000f3fe608060405234801561001057600080fd5b50600436106100415760003560e01c806320965255146100465780632796466614610064578063f96339301461009e575b600080fd5b61004e6100c0565b6040518082815260200191505060405180910390f35b61009c6004803603604081101561007a57600080fd5b81019080803590602001909291908035151590602001909291905050506100ca565b005b6100a66101ec565b604051808215151515815260200191505060405180910390f35b6000603354905090565b600060019054906101000a900460ff16806100e957506100e8610203565b5b8061010057506000809054906101000a900460ff16155b610155576040517f08c379a000000000000000000000000000000000000000000000000000000000815260040180806020018281038252602e81526020018061021b602e913960400191505060405180910390fd5b60008060019054906101000a900460ff1615905080156101a5576001600060016101000a81548160ff02191690831515021790555060016000806101000a81548160ff0219169083151502179055505b8260338190555081603460006101000a81548160ff02191690831515021790555080156101e75760008060016101000a81548160ff0219169083151502179055505b505050565b6000603460009054906101000a900460ff16905090565b6000803090506000813b905060008114925050509056fe436f6e747261637420696e7374616e63652068617320616c7265616479206265656e20696e697469616c697a6564a264697066735822122017138e13dffb470a07052acbe18f9d55272e6efd2b14c9404342e475f3666a9e64736f6c63430006000033",
  "linkReferences": {},
  "deployedLinkReferences": {}
}