{
  "_format": "hh-sol-artifact-1",
  "contractName": "VerifySign",
  "sourceName": "contracts/VerifySign.sol",
  "abi": [
    {
      "inputs": [
        {
          "internalType": "bytes32",
          "name": "hash",
          "type": "bytes32"
        },
        {
          "internalType": "bytes",
          "name": "sign",
          "type": "bytes"
        }
      ],
      "name": "verify",
      "outputs": [
        {
          "internalType": "address",
          "name": "",
          "type": "address"
        }
      ],
      "stateMutability": "pure",
      "type": "function"
    }
  ],
  "bytecode": "0x608060405234801561001057600080fd5b506104ac806100206000396000f3fe608060405234801561001057600080fd5b506004361061002b5760003560e01c8063258ae58214610030575b600080fd5b6100f36004803603604081101561004657600080fd5b81019080803590602001909291908035906020019064010000000081111561006d57600080fd5b82018360208201111561007f57600080fd5b803590602001918460018302840111640100000000831117156100a157600080fd5b91908080601f016020809104026020016040519081016040528093929190818152602001838380828437600081840152601f19601f82011690508083019250505050505050919291929050505061011f565b604051808273ffffffffffffffffffffffffffffffffffffffff16815260200191505060405180910390f35b60008061017a8460405160200180807f19457468657265756d205369676e6564204d6573736167653a0a333200000000815250601c018281526020019150506040516020818303038152906040528051906020012084610186565b90508091505092915050565b600060418251146101ff576040517f08c379a000000000000000000000000000000000000000000000000000000000815260040180806020018281038252601f8152602001807f45434453413a20696e76616c6964207369676e6174757265206c656e6774680081525060200191505060405180910390fd5b60008060006020850151925060408501519150606085015160001a905061022886828585610233565b935050505092915050565b60007f7fffffffffffffffffffffffffffffff5d576e7357a4501ddfe92f46681b20a08260001c11156102b1576040517f08c379a00000000000000000000000000000000000000000000000000000000081526004018080602001828103825260228152602001806104336022913960400191505060405180910390fd5b601b8460ff1614806102c65750601c8460ff16145b61031b576040517f08c379a00000000000000000000000000000000000000000000000000000000081526004018080602001828103825260228152602001806104556022913960400191505060405180910390fd5b600060018686868660405160008152602001604052604051808581526020018460ff1681526020018381526020018281526020019450505050506020604051602081039080840390855afa158015610377573d6000803e3d6000fd5b505050602060405103519050600073ffffffffffffffffffffffffffffffffffffffff168173ffffffffffffffffffffffffffffffffffffffff161415610426576040517f08c379a00000000000000000000000000000000000000000000000000000000081526004018080602001828103825260188152602001807f45434453413a20696e76616c6964207369676e6174757265000000000000000081525060200191505060405180910390fd5b8091505094935050505056fe45434453413a20696e76616c6964207369676e6174757265202773272076616c756545434453413a20696e76616c6964207369676e6174757265202776272076616c7565a2646970667358221220cb636eaabf900953ecbe6037f26eb80cbf2659f2b4970adf6dd31b6bfd5d5aad64736f6c63430007030033",
  "linkReferences": {},
  "deployedLinkReferences": {}
}